{
  "contractName": "DogBreedContract",
  "abi": [
    {
      "inputs": [],
      "payable": false,
      "stateMutability": "nonpayable",
      "type": "constructor"
    },
    {
      "anonymous": false,
      "inputs": [
        {
          "indexed": false,
          "internalType": "uint256",
          "name": "_dogId",
          "type": "uint256"
        }
      ],
      "name": "AddingDog",
      "type": "event"
    },
    {
      "anonymous": false,
      "inputs": [
        {
          "indexed": false,
          "internalType": "uint256",
          "name": "_dogId",
          "type": "uint256"
        }
      ],
      "name": "BoughtDog",
      "type": "event"
    },
    {
      "anonymous": false,
      "inputs": [
        {
          "indexed": false,
          "internalType": "address",
          "name": "account",
          "type": "address"
        }
      ],
      "name": "Paused",
      "type": "event"
    },
    {
      "anonymous": false,
      "inputs": [
        {
          "indexed": true,
          "internalType": "address",
          "name": "account",
          "type": "address"
        }
      ],
      "name": "PauserAdded",
      "type": "event"
    },
    {
      "anonymous": false,
      "inputs": [
        {
          "indexed": true,
          "internalType": "address",
          "name": "account",
          "type": "address"
        }
      ],
      "name": "PauserRemoved",
      "type": "event"
    },
    {
      "anonymous": false,
      "inputs": [
        {
          "indexed": false,
          "internalType": "uint256",
          "name": "_dogId",
          "type": "uint256"
        }
      ],
      "name": "ReceivedDog",
      "type": "event"
    },
    {
      "anonymous": false,
      "inputs": [
        {
          "indexed": false,
          "internalType": "address",
          "name": "account",
          "type": "address"
        }
      ],
      "name": "Unpaused",
      "type": "event"
    },
    {
      "constant": false,
      "inputs": [
        {
          "internalType": "address",
          "name": "account",
          "type": "address"
        }
      ],
      "name": "addPauser",
      "outputs": [],
      "payable": false,
      "stateMutability": "nonpayable",
      "type": "function"
    },
    {
      "constant": true,
      "inputs": [
        {
          "internalType": "address",
          "name": "account",
          "type": "address"
        }
      ],
      "name": "isPauser",
      "outputs": [
        {
          "internalType": "bool",
          "name": "",
          "type": "bool"
        }
      ],
      "payable": false,
      "stateMutability": "view",
      "type": "function"
    },
    {
      "constant": false,
      "inputs": [],
      "name": "pause",
      "outputs": [],
      "payable": false,
      "stateMutability": "nonpayable",
      "type": "function"
    },
    {
      "constant": true,
      "inputs": [],
      "name": "paused",
      "outputs": [
        {
          "internalType": "bool",
          "name": "",
          "type": "bool"
        }
      ],
      "payable": false,
      "stateMutability": "view",
      "type": "function"
    },
    {
      "constant": false,
      "inputs": [],
      "name": "renouncePauser",
      "outputs": [],
      "payable": false,
      "stateMutability": "nonpayable",
      "type": "function"
    },
    {
      "constant": false,
      "inputs": [],
      "name": "unpause",
      "outputs": [],
      "payable": false,
      "stateMutability": "nonpayable",
      "type": "function"
    },
    {
      "constant": true,
      "inputs": [],
      "name": "verifier",
      "outputs": [
        {
          "internalType": "address",
          "name": "",
          "type": "address"
        }
      ],
      "payable": false,
      "stateMutability": "view",
      "type": "function"
    },
    {
      "constant": false,
      "inputs": [
        {
          "internalType": "string",
          "name": "_name",
          "type": "string"
        },
        {
          "internalType": "string",
          "name": "_breed",
          "type": "string"
        },
        {
          "internalType": "uint256",
          "name": "_groomingCost",
          "type": "uint256"
        },
        {
          "internalType": "uint256",
          "name": "_age",
          "type": "uint256"
        },
        {
          "internalType": "uint256",
          "name": "_price",
          "type": "uint256"
        },
        {
          "internalType": "bool",
          "name": "_certified",
          "type": "bool"
        }
      ],
      "name": "addDog",
      "outputs": [
        {
          "internalType": "bool",
          "name": "",
          "type": "bool"
        }
      ],
      "payable": false,
      "stateMutability": "nonpayable",
      "type": "function"
    },
    {
      "constant": false,
      "inputs": [
        {
          "internalType": "uint256",
          "name": "_dogId",
          "type": "uint256"
        }
      ],
      "name": "certified",
      "outputs": [],
      "payable": false,
      "stateMutability": "nonpayable",
      "type": "function"
    },
    {
      "constant": false,
      "inputs": [
        {
          "internalType": "uint256",
          "name": "_dogId",
          "type": "uint256"
        }
      ],
      "name": "buyDog",
      "outputs": [],
      "payable": true,
      "stateMutability": "payable",
      "type": "function"
    },
    {
      "constant": false,
      "inputs": [
        {
          "internalType": "uint256",
          "name": "_dogId",
          "type": "uint256"
        }
      ],
      "name": "receivedDog",
      "outputs": [],
      "payable": false,
      "stateMutability": "nonpayable",
      "type": "function"
    },
    {
      "constant": true,
      "inputs": [
        {
          "internalType": "uint256",
          "name": "_dogId",
          "type": "uint256"
        }
      ],
      "name": "getDog",
      "outputs": [
        {
          "internalType": "string",
          "name": "name",
          "type": "string"
        },
        {
          "internalType": "string",
          "name": "breed",
          "type": "string"
        },
        {
          "internalType": "uint256",
          "name": "groomingCost",
          "type": "uint256"
        },
        {
          "internalType": "uint256",
          "name": "age",
          "type": "uint256"
        },
        {
          "internalType": "uint256",
          "name": "dogId",
          "type": "uint256"
        },
        {
          "internalType": "uint256",
          "name": "price",
          "type": "uint256"
        },
        {
          "internalType": "bool",
          "name": "certified",
          "type": "bool"
        },
        {
          "internalType": "uint256",
          "name": "state",
          "type": "uint256"
        },
        {
          "internalType": "address",
          "name": "seller",
          "type": "address"
        },
        {
          "internalType": "address",
          "name": "buyer",
          "type": "address"
        }
      ],
      "payable": false,
      "stateMutability": "view",
      "type": "function"
    }
  ],
  "bytecode": "0x60806040523480156200001157600080fd5b5062000032620000266200009b60201b60201c565b620000a360201b60201c565b6000600160006101000a81548160ff021916908315150217905550336001806101000a81548173ffffffffffffffffffffffffffffffffffffffff021916908373ffffffffffffffffffffffffffffffffffffffff1602179055506001600281905550620002c8565b600033905090565b620000be8160006200010460201b6200177f1790919060201c565b8073ffffffffffffffffffffffffffffffffffffffff167f6719d08c1888103bea251a4ed56406bd0c3e69723c8a1686e017e7bbe159b6f860405160405180910390a250565b620001168282620001e860201b60201c565b156200018a576040517f08c379a000000000000000000000000000000000000000000000000000000000815260040180806020018281038252601f8152602001807f526f6c65733a206163636f756e7420616c72656164792068617320726f6c650081525060200191505060405180910390fd5b60018260000160008373ffffffffffffffffffffffffffffffffffffffff1673ffffffffffffffffffffffffffffffffffffffff16815260200190815260200160002060006101000a81548160ff0219169083151502179055505050565b60008073ffffffffffffffffffffffffffffffffffffffff168273ffffffffffffffffffffffffffffffffffffffff16141562000271576040517f08c379a000000000000000000000000000000000000000000000000000000000815260040180806020018281038252602281526020018062001c7f6022913960400191505060405180910390fd5b8260000160008373ffffffffffffffffffffffffffffffffffffffff1673ffffffffffffffffffffffffffffffffffffffff16815260200190815260200160002060009054906101000a900460ff16905092915050565b6119a780620002d86000396000f3fe6080604052600436106100a65760003560e01c80636ef8d66d116100645780636ef8d66d1461038d5780637c62e2a4146103a4578063827727e01461055857806382dc1ec4146105865780638456cb59146105d7578063d38ba115146105ee576100a6565b80623f8202146100ab5780632b7ac3f3146100e65780633f4ba83a1461013d57806346fbf68e1461015457806354ce1325146101bd5780635c975abb1461035e575b600080fd5b3480156100b757600080fd5b506100e4600480360360208110156100ce57600080fd5b8101908080359060200190929190505050610629565b005b3480156100f257600080fd5b506100fb6107a0565b604051808273ffffffffffffffffffffffffffffffffffffffff1673ffffffffffffffffffffffffffffffffffffffff16815260200191505060405180910390f35b34801561014957600080fd5b506101526107c5565b005b34801561016057600080fd5b506101a36004803603602081101561017757600080fd5b81019080803573ffffffffffffffffffffffffffffffffffffffff169060200190929190505050610933565b604051808215151515815260200191505060405180910390f35b3480156101c957600080fd5b50610344600480360360c08110156101e057600080fd5b81019080803590602001906401000000008111156101fd57600080fd5b82018360208201111561020f57600080fd5b8035906020019184600183028401116401000000008311171561023157600080fd5b91908080601f016020809104026020016040519081016040528093929190818152602001838380828437600081840152601f19601f8201169050808301925050505050505091929192908035906020019064010000000081111561029457600080fd5b8201836020820111156102a657600080fd5b803590602001918460018302840111640100000000831117156102c857600080fd5b91908080601f016020809104026020016040519081016040528093929190818152602001838380828437600081840152601f19601f820116905080830192505050505050509192919290803590602001909291908035906020019092919080359060200190929190803515159060200190929190505050610950565b604051808215151515815260200191505060405180910390f35b34801561036a57600080fd5b50610373610b80565b604051808215151515815260200191505060405180910390f35b34801561039957600080fd5b506103a2610b97565b005b3480156103b057600080fd5b506103dd600480360360208110156103c757600080fd5b8101908080359060200190929190505050610ba9565b6040518080602001806020018b81526020018a8152602001898152602001888152602001871515151581526020018681526020018573ffffffffffffffffffffffffffffffffffffffff1673ffffffffffffffffffffffffffffffffffffffff1681526020018473ffffffffffffffffffffffffffffffffffffffff1673ffffffffffffffffffffffffffffffffffffffff16815260200183810383528d818151815260200191508051906020019080838360005b838110156104ad578082015181840152602081019050610492565b50505050905090810190601f1680156104da5780820380516001836020036101000a031916815260200191505b5083810382528c818151815260200191508051906020019080838360005b838110156105135780820151818401526020810190506104f8565b50505050905090810190601f1680156105405780820380516001836020036101000a031916815260200191505b509c5050505050505050505050505060405180910390f35b6105846004803603602081101561056e57600080fd5b8101908080359060200190929190505050610e72565b005b34801561059257600080fd5b506105d5600480360360208110156105a957600080fd5b81019080803573ffffffffffffffffffffffffffffffffffffffff1690602001909291905050506111b5565b005b3480156105e357600080fd5b506105ec611226565b005b3480156105fa57600080fd5b506106276004803603602081101561061157600080fd5b8101908080359060200190929190505050611394565b005b600160009054906101000a900460ff16156106ac576040517f08c379a00000000000000000000000000000000000000000000000000000000081526004018080602001828103825260108152602001807f5061757361626c653a207061757365640000000000000000000000000000000081525060200191505060405180910390fd5b3373ffffffffffffffffffffffffffffffffffffffff166001809054906101000a900473ffffffffffffffffffffffffffffffffffffffff1673ffffffffffffffffffffffffffffffffffffffff161461076e576040517f08c379a000000000000000000000000000000000000000000000000000000000815260040180806020018281038252601a8152602001807f4f6e6c792076657269666965722063616e2061646420646f677300000000000081525060200191505060405180910390fd5b60016003600083815260200190815260200160002060060160006101000a81548160ff02191690831515021790555050565b6001809054906101000a900473ffffffffffffffffffffffffffffffffffffffff1681565b6107d56107d0611528565b610933565b61082a576040517f08c379a00000000000000000000000000000000000000000000000000000000081526004018080602001828103825260308152602001806119006030913960400191505060405180910390fd5b600160009054906101000a900460ff166108ac576040517f08c379a00000000000000000000000000000000000000000000000000000000081526004018080602001828103825260148152602001807f5061757361626c653a206e6f742070617573656400000000000000000000000081525060200191505060405180910390fd5b6000600160006101000a81548160ff0219169083151502179055507f5db9ee0a495bf2e6ff9c91a7834c1ba4fdd244a5e8aa4e537bd38aeae4b073aa6108f0611528565b604051808273ffffffffffffffffffffffffffffffffffffffff1673ffffffffffffffffffffffffffffffffffffffff16815260200191505060405180910390a1565b600061094982600061153090919063ffffffff16565b9050919050565b60007f9db2bb763e9542997a8e4a24312d7831d24e7aca3ca1f9f72e8bf071342ef3306002546040518082815260200191505060405180910390a160405180610140016040528088815260200187815260200186815260200185815260200160025481526020018481526020018315158152602001600060028111156109d257fe5b81526020013373ffffffffffffffffffffffffffffffffffffffff168152602001600073ffffffffffffffffffffffffffffffffffffffff168152506003600060025481526020019081526020016000206000820151816000019080519060200190610a3f92919061185a565b506020820151816001019080519060200190610a5c92919061185a565b5060408201518160020155606082015181600301556080820151816004015560a0820151816005015560c08201518160060160006101000a81548160ff02191690831515021790555060e08201518160060160016101000a81548160ff02191690836002811115610ac957fe5b02179055506101008201518160060160026101000a81548173ffffffffffffffffffffffffffffffffffffffff021916908373ffffffffffffffffffffffffffffffffffffffff1602179055506101208201518160070160006101000a81548173ffffffffffffffffffffffffffffffffffffffff021916908373ffffffffffffffffffffffffffffffffffffffff1602179055509050506001600260008282540192505081905550600190509695505050505050565b6000600160009054906101000a900460ff16905090565b610ba7610ba2611528565b61160e565b565b606080600080600080600080600080600360008c81526020019081526020016000206000018054600181600116156101000203166002900480601f016020809104026020016040519081016040528092919081815260200182805460018160011615610100020316600290048015610c625780601f10610c3757610100808354040283529160200191610c62565b820191906000526020600020905b815481529060010190602001808311610c4557829003601f168201915b50505050509950600360008c81526020019081526020016000206001018054600181600116156101000203166002900480601f016020809104026020016040519081016040528092919081815260200182805460018160011615610100020316600290048015610d135780601f10610ce857610100808354040283529160200191610d13565b820191906000526020600020905b815481529060010190602001808311610cf657829003601f168201915b50505050509850600360008c8152602001908152602001600020600201549750600360008c8152602001908152602001600020600301549650600360008c8152602001908152602001600020600401549550600360008c8152602001908152602001600020600501549450600360008c815260200190815260200160002060060160009054906101000a900460ff169350600360008c815260200190815260200160002060060160019054906101000a900460ff166002811115610dd357fe5b9250600360008c815260200190815260200160002060060160029054906101000a900473ffffffffffffffffffffffffffffffffffffffff169150600360008c815260200190815260200160002060070160009054906101000a900473ffffffffffffffffffffffffffffffffffffffff1690508989898989898989898999509950995099509950995099509950995099509193959799509193959799565b600160009054906101000a900460ff1615610ef5576040517f08c379a00000000000000000000000000000000000000000000000000000000081526004018080602001828103825260108152602001807f5061757361626c653a207061757365640000000000000000000000000000000081525060200191505060405180910390fd5b600360008281526020019081526020016000206004015460006002811115610f1957fe5b6003600083815260200190815260200160002060060160019054906101000a900460ff166002811115610f4857fe5b14610f5257600080fd5b600115156003600084815260200190815260200160002060060160009054906101000a900460ff16151514610fef576040517f08c379a000000000000000000000000000000000000000000000000000000000815260040180806020018281038252601c8152602001807f446f67204d7573742042652043657274696669656420546f204275790000000081525060200191505060405180910390fd5b60006002811115610ffc57fe5b6003600084815260200190815260200160002060060160019054906101000a900460ff16600281111561102b57fe5b1461103557600080fd5b600360008381526020019081526020016000206005015434101561105857600080fd5b7f22429a6915fe71769f6c67ddcf368c7ddd353b81ec219eefc70c7f16b78ecdfa6002546040518082815260200191505060405180910390a16003600083815260200190815260200160002060060160029054906101000a900473ffffffffffffffffffffffffffffffffffffffff1673ffffffffffffffffffffffffffffffffffffffff166108fc60036000858152602001908152602001600020600501549081150290604051600060405180830381858888f19350505050158015611123573d6000803e3d6000fd5b5060016003600084815260200190815260200160002060060160016101000a81548160ff0219169083600281111561115757fe5b0217905550336003600084815260200190815260200160002060070160006101000a81548173ffffffffffffffffffffffffffffffffffffffff021916908373ffffffffffffffffffffffffffffffffffffffff1602179055505050565b6111c56111c0611528565b610933565b61121a576040517f08c379a00000000000000000000000000000000000000000000000000000000081526004018080602001828103825260308152602001806119006030913960400191505060405180910390fd5b61122381611668565b50565b611236611231611528565b610933565b61128b576040517f08c379a00000000000000000000000000000000000000000000000000000000081526004018080602001828103825260308152602001806119006030913960400191505060405180910390fd5b600160009054906101000a900460ff161561130e576040517f08c379a00000000000000000000000000000000000000000000000000000000081526004018080602001828103825260108152602001807f5061757361626c653a207061757365640000000000000000000000000000000081525060200191505060405180910390fd5b60018060006101000a81548160ff0219169083151502179055507f62e78cea01bee320cd4e420270b5ea74000d11b0c9f74754ebdbfc544b05a258611351611528565b604051808273ffffffffffffffffffffffffffffffffffffffff1673ffffffffffffffffffffffffffffffffffffffff16815260200191505060405180910390a1565b60036000828152602001908152602001600020600401546002808111156113b757fe5b6003600083815260200190815260200160002060060160019054906101000a900460ff1660028111156113e657fe5b146113f057600080fd5b3373ffffffffffffffffffffffffffffffffffffffff166003600084815260200190815260200160002060070160009054906101000a900473ffffffffffffffffffffffffffffffffffffffff1673ffffffffffffffffffffffffffffffffffffffff161461145e57600080fd5b7f8253284f920eb5816a3436deb9862d644fbcf4d42010ab39052c4239d9f7eb136002546040518082815260200191505060405180910390a160026003600084815260200190815260200160002060060160016101000a81548160ff021916908360028111156114ca57fe5b0217905550336003600084815260200190815260200160002060070160006101000a81548173ffffffffffffffffffffffffffffffffffffffff021916908373ffffffffffffffffffffffffffffffffffffffff1602179055505050565b600033905090565b60008073ffffffffffffffffffffffffffffffffffffffff168273ffffffffffffffffffffffffffffffffffffffff1614156115b7576040517f08c379a00000000000000000000000000000000000000000000000000000000081526004018080602001828103825260228152602001806119516022913960400191505060405180910390fd5b8260000160008373ffffffffffffffffffffffffffffffffffffffff1673ffffffffffffffffffffffffffffffffffffffff16815260200190815260200160002060009054906101000a900460ff16905092915050565b6116228160006116c290919063ffffffff16565b8073ffffffffffffffffffffffffffffffffffffffff167fcd265ebaf09df2871cc7bd4133404a235ba12eff2041bb89d9c714a2621c7c7e60405160405180910390a250565b61167c81600061177f90919063ffffffff16565b8073ffffffffffffffffffffffffffffffffffffffff167f6719d08c1888103bea251a4ed56406bd0c3e69723c8a1686e017e7bbe159b6f860405160405180910390a250565b6116cc8282611530565b611721576040517f08c379a00000000000000000000000000000000000000000000000000000000081526004018080602001828103825260218152602001806119306021913960400191505060405180910390fd5b60008260000160008373ffffffffffffffffffffffffffffffffffffffff1673ffffffffffffffffffffffffffffffffffffffff16815260200190815260200160002060006101000a81548160ff0219169083151502179055505050565b6117898282611530565b156117fc576040517f08c379a000000000000000000000000000000000000000000000000000000000815260040180806020018281038252601f8152602001807f526f6c65733a206163636f756e7420616c72656164792068617320726f6c650081525060200191505060405180910390fd5b60018260000160008373ffffffffffffffffffffffffffffffffffffffff1673ffffffffffffffffffffffffffffffffffffffff16815260200190815260200160002060006101000a81548160ff0219169083151502179055505050565b828054600181600116156101000203166002900490600052602060002090601f016020900481019282601f1061189b57805160ff19168380011785556118c9565b828001600101855582156118c9579182015b828111156118c85782518255916020019190600101906118ad565b5b5090506118d691906118da565b5090565b6118fc91905b808211156118f85760008160009055506001016118e0565b5090565b9056fe506175736572526f6c653a2063616c6c657220646f6573206e6f742068617665207468652050617573657220726f6c65526f6c65733a206163636f756e7420646f6573206e6f74206861766520726f6c65526f6c65733a206163636f756e7420697320746865207a65726f2061646472657373a265627a7a7231582020dde95c989321d5fd152f37521a265870886dd175cd8a244b06e70a05acc83b64736f6c634300050c0032526f6c65733a206163636f756e7420697320746865207a65726f2061646472657373",
  "source": "pragma solidity >=0.5.0 <0.6.0;\n\n//importing Openzeppelin Pausable contract\nimport \"@openzeppelin/contracts/lifecycle/Pausable.sol\";\n\ncontract DogBreedContract is Pausable {\n    \n    \n\n //address of the verifier\n address public verifier;\n //tracks dogs added in the list\n uint dogIdCount;\n \n //enum for the states of the dog status\n enum State {ForSale, Sold, Received}\n\n //maps dog Id to dog name\n mapping (uint => Dog) dogs;\n \n \n //displays the verifier address and track how many dogs there are\n constructor() Pausable() public {\n     verifier = msg.sender;\n     dogIdCount = 1;\n }\n    \n //struct for specifications of each dog\n     struct Dog {\n        string name;\n        string breed;\n        uint groomingCost;\n        uint age;\n        uint dogId;\n        uint price;\n        bool certified;\n        State state;\n        address payable seller;\n        address payable buyer;\n    }\n    \n//events for adding a dog, buying a dog, and dog received\n    event AddingDog(uint _dogId);\n    event BoughtDog(uint _dogId);\n    event ReceivedDog(uint _dogId);\n    \n//modifiers to make sure the states are correct for selling, sold, received\n    modifier forSale(uint _dogId){require(dogs[_dogId].state == State.ForSale);_;}\n    modifier sold(uint _dogId){require(dogs[_dogId].state == State.Sold);_;}\n    modifier received(uint _dogId){require(dogs[_dogId].state == State.Received);_;}\n    \n //function to add new dog to list only by verifier\n    function addDog(string memory _name, string memory _breed, uint _groomingCost, uint _age,uint _price, bool _certified) public returns(bool){\n       emit AddingDog(dogIdCount);\n       dogs[dogIdCount] = Dog({\n           name: _name, \n           breed: _breed, \n           groomingCost: _groomingCost, \n           age: _age, \n           dogId: dogIdCount, \n           price: _price, \n           certified: _certified, \n           state: State.ForSale, \n           seller: msg.sender,\n           buyer: address(0)\n       });\n       dogIdCount += 1;\n       return true;\n    }\n   \nfunction certified(uint _dogId) whenNotPaused() public {\n     require (verifier == msg.sender, \"Only verifier can add dogs\");\n     dogs[_dogId].certified = true;\n}\n\n//function to buy dog from the list\nfunction buyDog(uint _dogId) whenNotPaused() public payable forSale(dogs[_dogId].dogId) {\n    require(dogs[_dogId].certified == true, \"Dog Must Be Certified To Buy\");\n    require(dogs[_dogId].state == State.ForSale);\n    require(msg.value >= dogs[_dogId].price);\n    emit BoughtDog(dogIdCount);\n    dogs[_dogId].seller.transfer(dogs[_dogId].price);\n    dogs[_dogId].state = State.Sold;\n    dogs[_dogId].buyer = msg.sender;\n}\n\n//function to notify that the dog has been Received by the buyer\nfunction receivedDog(uint _dogId) public  received(dogs[_dogId].dogId) {\nrequire(dogs[_dogId].buyer == msg.sender);\n   emit ReceivedDog(dogIdCount);\n   dogs[_dogId].state = State.Received;\n   dogs[_dogId].buyer = msg.sender;\n}\n\n//function to retreive information on dogs\nfunction getDog(uint _dogId) public view returns (string memory name, string memory breed, uint groomingCost, uint age, uint dogId, uint price, bool certified, uint state, address seller, address buyer) {\n    name = dogs[_dogId].name;\n    breed = dogs[_dogId].breed;\n    groomingCost = dogs[_dogId].groomingCost;\n    age = dogs[_dogId].age;\n    dogId = dogs[_dogId].dogId;\n    price = dogs[_dogId].price;\n    certified = dogs[_dogId].certified;\n    state = uint (dogs[_dogId].state);\n    seller = dogs[_dogId].seller;\n    buyer = dogs[_dogId].buyer;\n    return (name, breed, groomingCost, age, dogId, price, certified, state, seller, buyer);\n}\n\n}\n",
  "sourcePath": "/Users/shih-yuhwang/project/contracts/DogBreedContract.sol",
  "compiler": {
    "name": "solc",
    "version": "0.5.12+commit.7709ece9.Emscripten.clang"
  },
  "schemaVersion": "3.0.19",
  "updatedAt": "2020-01-28T18:58:43.998Z",
  "networkType": "ethereum",
  "devdoc": {
    "methods": {
      "pause()": {
        "details": "Called by a pauser to pause, triggers stopped state."
      },
      "paused()": {
        "details": "Returns true if the contract is paused, and false otherwise."
      },
      "unpause()": {
        "details": "Called by a pauser to unpause, returns to normal state."
      }
    }
  },
  "userdoc": {
    "methods": {}
  }
}